:100000000C94A0000C94C8000C94C8000C94C80078
:100010000C94C8000C94C8000C94C8000C94C80040
:100020000C94C8000C94C8000C94C8000C94C80030
:100030000C94C8000C94C8000C94C8000C94C80020
:100040000C94C6040C94C8000C943B020C9415024A
:100050000C94C8000C94C8000C94C8000C94C80000
:100060000C94C8000C94C80056657273696F6E20BA
:100070000020204974656D34202020204974656D6E
:1000800035202020204974656D3620202020466CC4
:10009000616773206D73506572436D6441766700CC
:1000A0005468726F74746C652020204974656D31DA
:1000B000202020204974656D32202020204974655D
:1000C0006D332020007365747570282920697320B2
:1000D000636F6D706C6574652E0020000000000871
:1000E00000020100000304070000000000000000FF
:1000F00000000000250028002B0000000000240064
:1001000027002A0004040404040404040202020276
:1001100002020303030303030102040810204080CA
:10012000010204081020010204081020000102034B
:1001300004051112131415160A0B0C0D0E0FAA0844
:1001400011241FBECFEFD8E0DEBFCDBF11E0A0E08D
:10015000B1E0E0EEF6E102C005900D92A434B107E3
:10016000D9F722E0A4E4B1E001C01D92A731B207A3
:10017000E1F710E0C0EAD0E004C02197FE010E9440
:100180001E09CF39D107C9F70E9410050C946E0BD8
:100190000C940000CF92DF92EF92FF920F931F9387
:1001A000CF93DF936C017A018B01C0E0D0E0CE15D4
:1001B000DF0589F0D8016D918D01D601ED91FC919B
:1001C0000190F081E02DC6010995892B11F47E0183
:1001D00002C02196ECCFC701DF91CF911F910F9103
:1001E000FF90EF90DF90CF900895FC01918D828D6C
:1001F000981761F0828DDF01A80FB11D5D968C917B
:10020000928D9F5F9F73928F90E008958FEF9FEF85
:100210000895FC01918D828D981731F0828DE80F41
:10022000F11D858D90E008958FEF9FEF0895FC01FB
:10023000918D228D892F90E0805C9F4F821B9109C8
:100240008F739927089589E591E00E94170121E0B5
:10025000892B09F420E0822F0895FC01848DDF01B1
:10026000A80FB11DA35ABF4F2C91848D90E0019629
:100270008F739927848FA689B7892C93A089B18918
:100280008C9180648C93938D848D981306C0028822
:10029000F389E02D80818F7D80830895EF92FF9216
:1002A0000F931F93CF93DF93EC0181E0888F9B8D99
:1002B0008C8D981305C0E889F989808185FD24C05B
:1002C000F62E0B8D10E00F5F1F4F0F731127E02EDE
:1002D0008C8DE8120CC00FB607FCFACFE889F989BB
:1002E000808185FFF5CFCE010E942D01F1CF8B8D4E
:1002F000FE01E80FF11DE35AFF4FF0820B8FEA89F0
:10030000FB898081806207C0EE89FF896083E8896C
:10031000F98980818064808381E090E0DF91CF91D2
:100320001F910F91FF90EF900895CF93DF93EC0111
:10033000888D8823C9F0EA89FB89808185FD05C005
:10034000A889B9898C9186FD0FC00FB607FCF5CF3F
:10035000808185FFF2CFA889B9898C9185FFEDCF87
:10036000CE010E942D01E7CFDF91CF91089580E06B
:1003700090E0892B29F00E94230181110C94000048
:1003800008958BE10E9499028BE50E94990281E019
:1003900008958F929F92AF92BF92CF92DF92EF9289
:1003A000FF924C016B010E94C101092C000CAA08AC
:1003B000BB08B7FE0CC08DE20E9499026627772722
:1003C000CB01681979098A099B094AE003C04AE010
:1003D000C501B4010E94B6028BE30E9499020D2C64
:1003E000000CEE08FF08F7FE0CC08DE20E94990297
:1003F00066277727CB016C197D098E099F094AE092
:1004000003C04AE0C701B6010E94B60286E60E9418
:10041000990281E0FF90EF90DF90CF90BF90AF9076
:100420009F908F9008950E94600B1F920F920FB6BD
:100430000F9211242F933F934F935F936F937F936A
:100440008F939F93AF93BF93EF93FF9389E591E0D1
:100450000E942D01FF91EF91BF91AF919F918F91DC
:100460007F916F915F914F913F912F910F900FBEB0
:100470000F901F9018951F920F920FB60F92112494
:100480002F938F939F93EF93FF93E0916901F091E6
:100490006A018081E0916F01F091700182FD12C0CC
:1004A0009081809172018F5F8F7320917301821709
:1004B00051F0E0917201F0E0E75AFE4F958F809382
:1004C000720101C08081FF91EF919F918F912F91D7
:1004D0000F900FBE0F901F9018958EBD00000DB4A9
:1004E00007FEFDCF8EB508953FB7F89480911302B3
:1004F00090911402A0911502B091160226B5A89B06
:1005000005C02F3F19F00196A11DB11D3FBFBA2FA5
:10051000A92F982F8827820F911DA11DB11DBC0105
:10052000CD0142E0660F771F881F991F4A95D1F7CA
:100530000895E0915901F0915A010190F081E02D68
:10054000682F89E591E00994009769F0FC0101901A
:100550000020E9F73197AF01481B590BBC0189E531
:1005600091E00C94CA0080E090E008958F929F92F1
:10057000AF92BF920F931F93CF93DF93CDB7DEB7A8
:10058000A1970FB6F894DEBF0FBECDBF19A24230BF
:1005900008F44AE08E010F5D1F4F842E912CA12C90
:1005A000B12CA50194010E94FC08E62FB901CA01F3
:1005B00001501109EA3014F4E05D01C0E95CD80192
:1005C000EC93232B242B252B61F7C8010E94A40256
:1005D000A1960FB6F894DEBF0FBECDBFDF91CF91CD
:1005E0001F910F91BF90AF909F908F9008958F9221
:1005F0009F92AF92BF92CF92DF92EF92FF920E94B2
:1006000074024B015C0185E0C82ED12CE12CF12C49
:100610000E947402DC01CB0188199909AA09BB095F
:10062000883E9340A105B10558F021E0C21AD108D7
:10063000E108F10888EE880E83E0981EA11CB11C29
:10064000C114D104E104F10419F7FF90EF90DF9099
:10065000CF90BF90AF909F908F90089590E0FC0155
:10066000E85EFE4F2491FC01EC5FFE4F84918823ED
:1006700099F090E0880F991FFC01E650FF4FA5917B
:10068000B491FC01E051FF4F859194918FB7F8949C
:10069000EC91E22BEC938FBF08950F931F93CF93B0
:1006A000DF938C01C0E0D0E0F801EC0FFD1F6491F6
:1006B000662371F0E0915901F0915A010190F081A7
:1006C000E02D89E591E00995892B11F02196ECCF79
:1006D000CE01DF91CF911F910F91089590E0FC0121
:1006E000E452FF4F3491FC01E85EFE4F2491FC017F
:1006F000EC5FFE4FE491EE2309F43BC0332339F164
:10070000333091F038F43130A9F0323001F584B54E
:100710008F7D12C0373091F03830A1F03430B9F409
:10072000809180008F7D03C0809180008F778093BF
:1007300080000DC084B58F7784BD09C08091B00062
:100740008F7703C08091B0008F7D8093B000F0E080
:10075000EE0FFF1FE051FF4FA591B4918FB7F894B2
:10076000EC91611103C020952E2301C02E2B2C93F8
:100770008FBF08958230910538F0880F991F880F38
:10078000991F05970197F1F70895CF93DF939CB5D3
:100790009F7D9CBD9CB5937F9CBD9CB59C7F9CBD63
:1007A0009DB591609DBDC6EFD1E0682F8A810E9402
:1007B0006E038C899D89DF91CF910C94BA0380E000
:1007C0000C94C503EF92FF920F931F93CF93DF9387
:1007D00000D01F92CDB7DEB7162F4A837B83898363
:1007E0000E94DF0389818F7180620E946D02082F51
:1007F000E12E7B81F72E4A81140F1E1531F0F7018F
:1008000081917F010E946D02F8CF81E00E94C503B3
:10081000802F0F900F900F90DF91CF911F910F912C
:10082000FF90EF9008951F93CF93DF931F92CDB762
:10083000DEB789830E94DF0389818F710E946D0278
:100840008FEF0E946D02182F81E00E94C503812F57
:100850000F90DF91CF911F9108951F93CF93DF9356
:1008600000D0CDB7DEB76A8389830E94DF03898118
:100870008F7180620E946D02182F6A81862F0E94FC
:100880006D0281E00E94C503812F0F900F90DF91D0
:10089000CF911F910895CF93DF93C82FD0E0FE0131
:1008A000E85CFE4F823020F484914091040202C043
:1008B000849141E00E94E203FE01EE5CFE4F8491D0
:1008C0006091FD010E942D0482E00E941304FE014C
:1008D000E45DFE4FE49161E070E001C0660FEA95CF
:1008E000EAF7682B82E0DF91CF910C942D040F93EF
:1008F0001F93CF938C0186E00E941304C82FC77DFD
:100900000230110531F4C0628BE990E0A0E0B0E064
:100910000DC00130110529F085E590E0A0E0B0E0C0
:1009200005C0C86081E490E0A0E0B0E080930602DA
:1009300090930702A0930802B09309026C2F86E0FF
:100940000E942D0486E00E94130491E08C1390E035
:10095000892FCF911F910F910895CF930E94DF03AC
:1009600081EE0E946D02C82F81E00E94C5038C2F8A
:10097000CF9108952FB7F89460910F0270911002F3
:1009800080911102909112022FBF08951F920F9231
:100990000FB60F9211242F933F938F939F93AF9392
:1009A000BF9380910F0290911002A0911102B0911B
:1009B000120230910E0223E0230F2D3720F401960E
:1009C000A11DB11D05C026E8230F0296A11DB11D72
:1009D00020930E0280930F0290931002A0931102B5
:1009E000B09312028091130290911402A09115020B
:1009F000B09116020196A11DB11D80931302909330
:100A00001402A0931502B0931602BF91AF919F916B
:100A10008F913F912F910F900FBE0F901F901895BF
:100A2000789484B5826084BD84B5816084BD85B5C9
:100A3000826085BD85B5816085BD80916E008160D5
:100A400080936E001092810080918100826080937B
:100A5000810080918100816080938100809180007D
:100A60008160809380008091B10084608093B100A8
:100A70008091B00081608093B00080917A008460A2
:100A800080937A0080917A00826080937A008091CE
:100A90007A00816080937A0080917A0080688093E8
:100AA0007A001092C100E0916901F0916A0182E040
:100AB0008083E0916501F09166011082E091670109
:100AC000F091680180E1808310927101E0916D01E5
:100AD000F0916E0186E08083E0916B01F0916C01F2
:100AE000808180618083E0916B01F0916C01808155
:100AF00088608083E0916B01F0916C018081806857
:100B00008083E0916B01F0916C0180818F7D808307
:100B10000E94C10189E291E00E94A40261E070E0BC
:100B200081E090E00E94C9010E94C1018CE291E045
:100B30000E94A40280EA90E00E944D0381E790E0C9
:100B40000E944D030E94C1018DE291E00E94A40227
:100B500061E070E08CE090E00E94C90188E690E0DE
:100B60000E944D034AE06BE677EC83E391E00E943C
:100B7000B60283E60E9499020E94C1018FE291E0D1
:100B80000E94A40288E0E1E5F1E0DF011D928A9570
:100B9000E9F78091F6019091F7012091F8013091E9
:100BA000F9018217930711F00E942E038091F8013A
:100BB0009091F9012091F6013091F701281739073A
:100BC00011F00E942E03CFB7F89480914401811157
:100BD00024C0EEE0F1E08491E2E2F1E09491E82FAC
:100BE000F0E0EE0FFF1FE650FF4FA591B491EC919E
:100BF000E92321F461E08AE00E946E038AE00E940A
:100C00002E038CB580618CBD8CB580648CBD8DE06D
:100C10000E942E038BE00E942E03809144018F5F7F
:100C200080934401CFBF8091F6019091F70120910C
:100C3000F8013091F9018217930719F060E00E94E2
:100C40006E0381E00E94C5030E94F7026CE080E021
:100C50000E942D046FE584E00E942D0482E090E064
:100C60000E947704882319F081E08093FC0186E0DC
:100C70000E94130480E090E00E9477040E94DF034A
:100C800080E50E946D0283E70E946D0281E00E9470
:100C9000C50360E08DE10E942D0460E08CE10E94BC
:100CA0002D041092FE0160E787E00E942D046CE4A1
:100CB00085E00E942D040E94DF0382EE0E946D02F7
:100CC00081E00E94C5030E94AD0480E00E941304ED
:100CD00081FD07C0682F626080E00E942D040E94A1
:100CE000F70280E00E941304682F6E7F80E00E946C
:100CF0002D048091F6019091F7012091F801309137
:100D0000F9018217930719F060E00E946E03809149
:100D10000602909107020E94BA038DE10E9413041B
:100D200081FF08C080910602909107020E94BA03D9
:100D30000E94AD0480E00E941304682F6E7F80E063
:100D40000E942D0482E00E941304ECE2F1E0E491A1
:100D500061E070E001C0660FEA95EAF7682B82E077
:100D60000E942D046FE381E00E942D0463E083E084
:100D70000E942D0485E0809304026AE284E00E94D0
:100D80002D046CE385E00E942D0488E08093FD0132
:100D900065E071E082E00E944B046AE071E083E06C
:100DA0000E944B046FE071E084E00E944B0464E118
:100DB00071E085E00E944B0486E00E941304887F66
:100DC000682F656086E00E942D0480E090E00E941C
:100DD00077048DE10E941304682F64608DE10E9406
:100DE0002D048CE10E941304682F6F638CE10E9434
:100DF0002D04C1E0C093FE018DE10E941304682F11
:100E000061608DE10E942D048DE10E941304682F22
:100E100066608DE10E942D048CE10E941304682F0E
:100E200063608CE10E942D04C093FE0180E00E946B
:100E30001304837F682F686080E00E942D04409136
:100E4000040260E071E08AE00E94E2034091040243
:100E500060E071E080E10E94E2036091FD0181E1C8
:100E60000E942D044091040250E060E071E08FEF99
:100E700091E00E94650B60E071E080E00E944B040D
:100E80000E94BA046093490170934A0180934B0118
:100E900090934C010E94BA046093450170934601FF
:100EA000809347019093480161E070E08EE090E00C
:100EB0000E94C90185EC90E00E944D0384E391E01B
:100EC0000E94A40281E591E018E0180F87E10E94DA
:100ED000130480FF17C11AC081E00E94C50360E7B8
:100EE00087E00E942D0480914D0190914E01A091C8
:100EF0004F01B09150010196A11DB11D80934D018C
:100F000090934E01A0934F01B09350010E94BA04F8
:100F1000C0904901D0904A01E0904B01F0904C0103
:100F2000DC01CB018C199D09AE09BF090897A10509
:100F3000B10508F4E4C00E94BA04609349017093BB
:100F40004A0180934B0190934C016091450170914F
:100F5000460180914701909148010E94370A6B0138
:100F60007C0160914D0170914E0180914F019091F3
:100F700050010E94370A9B01AC01C701B6010E94D3
:100F800096096B017C0165E070E083E090E00E94CF
:100F9000C9010E94C10182E30E9499028BE40E9470
:100FA0009902C1E5D1E0699170E080E090E04AE00B
:100FB0000E94B602082F093030F48AED90E00E94BA
:100FC0004D030F5FF8CF1C13EECFA7019601C701A9
:100FD000B6010E945B0B882319F087E391E027C0DC
:100FE00046015701E894B7F82FEF3FEF4FE75FE76F
:100FF000C501B4010E945B0B81110DC02FEF3FEFC3
:101000004FE75FE7C501B4010E94910918161CF46F
:101010008BE391E00CC02FEF3FEF4FE75FE4C70198
:10102000B6010E94E90A18162CF48FE391E00E94A1
:10103000A40265C02FEF3FEF4FE75FECC701B60199
:101040000E94910987FDF1CF20E030E0A901C7019E
:10105000B6010E94910987FF07C08DE20E949902A4
:10106000F7FAF094F7F8F0942AE037ED43EA5BE3FF
:10107000C701B6010E9425094B015C010E94080AC4
:101080006B017C010E94370A9B01AC01C501B401D0
:101090000E9424094B015C014AE0C701B6010E948D
:1010A000B6028EE20E94990220E030E040E251E474
:1010B000C501B4010E94EE0A4B015C010E94080ABE
:1010C0006B01E12CF12C4AE0C701B6010E94B60287
:1010D000C701B6010E94370A9B01AC01C501B401EA
:1010E0000E94240920E030E040E251E40E94EE0A30
:1010F0000E94080A80E090E04AE00E94B6020E9446
:10110000B701E4CEC091FD01C83010F1D8E0809164
:10111000FE01811102C0CD1B01C0C0E00E94DF03AF
:1011200081E60E946D0281E5E82E81E0F82ED15023
:1011300038F08FEF0E946D02F70181937F01F7CFA6
:10114000CC2309F4C9CE8FEF0E946D02C150F8CFB5
:10115000DC2FDDCFE9E5F1E01382128288EE93E027
:10116000A0E0B0E084839583A683B7838DE191E00E
:101170009183808385EC90E09587848784EC90E070
:101180009787868780EC90E0918B808B81EC90E054
:10119000938B828B82EC90E0958B848B86EC90E035
:1011A000978B868B118E128E138E148EE6EFF1E0E4
:1011B00088E090E0918380838AE090E0938382834B
:1011C000168280E28783108685E0868785E090E03E
:1011D000A0E0B0E0848B958BA68BB78B11868AEF4D
:1011E00090E0A0E0B0E0808B918BA28BB38B81E08C
:1011F0008787158214820895A1E21A2EAA1BBB1BB1
:10120000FD010DC0AA1FBB1FEE1FFF1FA217B307D2
:10121000E407F50720F0A21BB30BE40BF50B661FE8
:10122000771F881F991F1A9469F7609570958095AC
:1012300090959B01AC01BD01CF010895EE0FFF1FFA
:101240000590F491E02D09945058BB27AA270E94DD
:101250003C090C94AF0A0E94A10A38F00E94A80A27
:1012600020F039F49F3F19F426F40C949E0A0EF4F2
:10127000E095E7FB0C94980AE92F0E94C00A58F306
:10128000BA17620773078407950720F079F4A6F56B
:101290000C94E20A0EF4E0950B2EBA2FA02D0B0150
:1012A000B90190010C01CA01A0011124FF27591BAB
:1012B00099F0593F50F4503E68F11A16F040A22FB1
:1012C000232F342F4427585FF3CF46953795279522
:1012D000A795F0405395C9F77EF41F16BA0B620B21
:1012E000730B840BBAF09150A1F0FF0FBB1F661F68
:1012F000771F881FC2F70EC0BA0F621F731F841FAB
:1013000048F4879577956795B795F7959E3F08F0D0
:10131000B0CF9395880F08F09927EE0F9795879592
:1013200008950E94740A08F481E008950E94AA09B1
:101330000C94AF0A0E94A80A58F00E94A10A40F03B
:1013400029F45F3F29F00C94980A51110C94E30A98
:101350000C949E0A0E94C00A68F39923B1F35523A6
:1013600091F3951B550BBB27AA27621773078407B8
:1013700038F09F5F5F4F220F331F441FAA1FA9F34E
:1013800035D00E2E3AF0E0E832D091505040E6953C
:10139000001CCAF72BD0FE2F29D0660F771F881F9D
:1013A000BB1F261737074807AB07B0E809F0BB0B90
:1013B000802DBF01FF2793585F4F3AF09E3F5105A4
:1013C00078F00C94980A0C94E30A5F3FE4F3983E9B
:1013D000D4F3869577956795B795F7959F5FC9F78D
:1013E000880F911D9695879597F90895E1E0660F0E
:1013F000771F881FBB1F621773078407BA0720F087
:10140000621B730B840BBA0BEE1F88F7E0950895EF
:101410000E94C80A88F09F5798F0B92F9927B751B2
:10142000B0F0E1F0660F771F881F991F1AF0BA9588
:10143000C9F714C0B13091F00E94E20AB1E00895FA
:101440000C94E20A672F782F8827B85F39F0B93FEC
:10145000CCF3869577956795B395D9F73EF490953B
:101460008095709561957F4F8F4F9F4F0895E894B9
:1014700009C097FB3EF490958095709561957F4FDC
:101480008F4F9F4F9923A9F0F92F96E9BB2793958A
:10149000F695879577956795B795F111F8CFFAF49A
:1014A000BB0F11F460FF1BC06F5F7F4F8F4F9F4FCB
:1014B00016C0882311F096E911C0772321F09EE829
:1014C000872F762F05C0662371F096E8862F70E08F
:1014D00060E02AF09A95660F771F881FDAF7880F69
:1014E0009695879597F90895990F0008550FAA0BBF
:1014F000E0E8FEEF16161706E807F907C0F0121627
:101500001306E407F50798F0621B730B840B950B29
:1015100039F40A2661F0232B242B252B21F408957E
:101520000A2609F4A140A6958FEF811D811D08951B
:1015300097F99F6780E870E060E008959FEF80EC86
:10154000089500240A941616170618060906089529
:1015500000240A9412161306140605060895092E8F
:101560000394000C11F4882352F0BB0F40F4BF2BFE
:1015700011F460FF04C06F5F7F4F8F4F9F4F08953E
:1015800057FD9058440F551F59F05F3F71F0479534
:10159000880F97FB991F61F09F3F79F08795089519
:1015A000121613061406551FF2CF4695F1DF08C038
:1015B000161617061806991FF1CF86957105610555
:1015C00008940895E894BB2766277727CB0197F9FD
:1015D00008950E94740A08F48FEF08950E94010B89
:1015E0000C94AF0A0E94A10A38F00E94A80A20F0C9
:1015F000952311F00C94980A0C949E0A11240C94D3
:10160000E30A0E94C00A70F3959FC1F3950F50E062
:10161000551F629FF001729FBB27F00DB11D639FA4
:10162000AA27F00DB11DAA1F649F6627B00DA11D4A
:10163000661F829F2227B00DA11D621F739FB00DF0
:10164000A11D621F839FA00D611D221F749F332760
:10165000A00D611D231F849F600D211D822F762FF9
:101660006A2F11249F5750409AF0F1F088234AF0D6
:10167000EE0FFF1FBB1F661F771F881F9150504042
:10168000A9F79E3F510580F00C94980A0C94E30A48
:101690005F3FE4F3983ED4F3869577956795B795C9
:1016A000F795E7959F5FC1F7FE2B880F911D9695E3
:1016B000879597F908950E94740A880B990B0895ED
:1016C00081E090E0F8940C946E0BFB01DC0102C009
:1016D00001900D9241505040D8F70895F894FFCFF3
:1016E000DF195557C1C300000000C400000000C549
:1016F00000000000C600000000000000004E01CA0B
:10170000001701F50009019501324A00316D003FD3
:1017100032356C000D0A006E616E00696E66006FF6
:0417200076660000E9
:00000001FF
